{
  "contractName": "PlayStore",
  "abi": [
    {
      "inputs": [],
      "name": "Fee",
      "outputs": [
        {
          "internalType": "uint256",
          "name": "",
          "type": "uint256"
        }
      ],
      "stateMutability": "view",
      "type": "function"
    },
    {
      "inputs": [
        {
          "internalType": "string",
          "name": "",
          "type": "string"
        }
      ],
      "name": "appToCid",
      "outputs": [
        {
          "internalType": "string",
          "name": "",
          "type": "string"
        }
      ],
      "stateMutability": "view",
      "type": "function"
    },
    {
      "inputs": [
        {
          "internalType": "string",
          "name": "",
          "type": "string"
        },
        {
          "internalType": "uint256",
          "name": "",
          "type": "uint256"
        }
      ],
      "name": "appTypeToApps",
      "outputs": [
        {
          "internalType": "string",
          "name": "name",
          "type": "string"
        },
        {
          "internalType": "string",
          "name": "category",
          "type": "string"
        },
        {
          "internalType": "string",
          "name": "fileCid",
          "type": "string"
        },
        {
          "internalType": "string",
          "name": "iconCid",
          "type": "string"
        }
      ],
      "stateMutability": "view",
      "type": "function"
    },
    {
      "inputs": [],
      "name": "balance",
      "outputs": [
        {
          "internalType": "uint256",
          "name": "",
          "type": "uint256"
        }
      ],
      "stateMutability": "view",
      "type": "function"
    },
    {
      "inputs": [
        {
          "internalType": "address",
          "name": "",
          "type": "address"
        }
      ],
      "name": "developer",
      "outputs": [
        {
          "internalType": "bool",
          "name": "",
          "type": "bool"
        }
      ],
      "stateMutability": "view",
      "type": "function"
    },
    {
      "inputs": [
        {
          "internalType": "address",
          "name": "_address",
          "type": "address"
        }
      ],
      "name": "isDeveloper",
      "outputs": [
        {
          "internalType": "bool",
          "name": "",
          "type": "bool"
        }
      ],
      "stateMutability": "view",
      "type": "function"
    },
    {
      "inputs": [],
      "name": "pay",
      "outputs": [
        {
          "internalType": "uint256",
          "name": "",
          "type": "uint256"
        }
      ],
      "stateMutability": "payable",
      "type": "function"
    },
    {
      "inputs": [],
      "name": "getAllApps",
      "outputs": [
        {
          "components": [
            {
              "internalType": "string",
              "name": "name",
              "type": "string"
            },
            {
              "internalType": "string",
              "name": "category",
              "type": "string"
            },
            {
              "internalType": "string",
              "name": "fileCid",
              "type": "string"
            },
            {
              "internalType": "string",
              "name": "iconCid",
              "type": "string"
            }
          ],
          "internalType": "struct PlayStore.App[]",
          "name": "",
          "type": "tuple[]"
        }
      ],
      "stateMutability": "view",
      "type": "function"
    },
    {
      "inputs": [],
      "name": "getAllGames",
      "outputs": [
        {
          "components": [
            {
              "internalType": "string",
              "name": "name",
              "type": "string"
            },
            {
              "internalType": "string",
              "name": "category",
              "type": "string"
            },
            {
              "internalType": "string",
              "name": "fileCid",
              "type": "string"
            },
            {
              "internalType": "string",
              "name": "iconCid",
              "type": "string"
            }
          ],
          "internalType": "struct PlayStore.App[]",
          "name": "",
          "type": "tuple[]"
        }
      ],
      "stateMutability": "view",
      "type": "function"
    },
    {
      "inputs": [],
      "name": "getAllComics",
      "outputs": [
        {
          "components": [
            {
              "internalType": "string",
              "name": "name",
              "type": "string"
            },
            {
              "internalType": "string",
              "name": "category",
              "type": "string"
            },
            {
              "internalType": "string",
              "name": "fileCid",
              "type": "string"
            },
            {
              "internalType": "string",
              "name": "iconCid",
              "type": "string"
            }
          ],
          "internalType": "struct PlayStore.App[]",
          "name": "",
          "type": "tuple[]"
        }
      ],
      "stateMutability": "view",
      "type": "function"
    },
    {
      "inputs": [
        {
          "internalType": "string",
          "name": "_category",
          "type": "string"
        },
        {
          "internalType": "string",
          "name": "_appType",
          "type": "string"
        },
        {
          "internalType": "string",
          "name": "_appName",
          "type": "string"
        },
        {
          "internalType": "string",
          "name": "_fileCid",
          "type": "string"
        },
        {
          "internalType": "string",
          "name": "_iconCid",
          "type": "string"
        }
      ],
      "name": "create",
      "outputs": [
        {
          "internalType": "string",
          "name": "",
          "type": "string"
        }
      ],
      "stateMutability": "nonpayable",
      "type": "function"
    }
  ],
  "bytecode": "0x608060405234801561001057600080fd5b50612199806100206000396000f3fe60806040526004361061009c5760003560e01c806350faea781161006457806350faea78146101b75780635eca4a70146101e2578063b4394aa61461021f578063b69ef8a81461024a578063bef7a2f014610275578063db1c45f9146102a05761009c565b80631953dc73146100a15780631b9265b8146100df5780633196c667146100fd57806345dbef401461013a5780634c5089ca1461017a575b600080fd5b3480156100ad57600080fd5b506100c860048036038101906100c391906117b4565b6102cb565b6040516100d6929190611c75565b60405180910390f35b6100e7610596565b6040516100f49190611d5c565b60405180910390f35b34801561010957600080fd5b50610124600480360381019061011f919061178b565b610652565b6040516101319190611c5a565b60405180910390f35b34801561014657600080fd5b50610161600480360381019061015c91906118fa565b610672565b6040516101719493929190611cbb565b60405180910390f35b34801561018657600080fd5b506101a1600480360381019061019c91906118b9565b6108f5565b6040516101ae9190611c99565b60405180910390f35b3480156101c357600080fd5b506101cc6109ab565b6040516101d99190611c38565b60405180910390f35b3480156101ee57600080fd5b506102096004803603810190610204919061178b565b610d71565b6040516102169190611c5a565b60405180910390f35b34801561022b57600080fd5b50610234610dc7565b6040516102419190611c38565b60405180910390f35b34801561025657600080fd5b5061025f61118d565b60405161026c9190611d5c565b60405180910390f35b34801561028157600080fd5b5061028a611193565b6040516102979190611d5c565b60405180910390f35b3480156102ac57600080fd5b506102b5611198565b6040516102c29190611c38565b60405180910390f35b36600060011515600260003373ffffffffffffffffffffffffffffffffffffffff1673ffffffffffffffffffffffffffffffffffffffff16815260200190815260200160002060009054906101000a900460ff16151514610361576040517f08c379a000000000000000000000000000000000000000000000000000000000815260040161035890611d1c565b60405180910390fd5b60008a8a604051610373929190611be0565b908152602001604051809103902060405180608001604052808a8a8080601f016020809104026020016040519081016040528093929190818152602001838380828437600081840152601f19601f8201169050808301925050505050505081526020018e8e8080601f016020809104026020016040519081016040528093929190818152602001838380828437600081840152601f19601f82011690508083019250505050505050815260200188888080601f016020809104026020016040519081016040528093929190818152602001838380828437600081840152601f19601f82011690508083019250505050505050815260200186868080601f016020809104026020016040519081016040528093929190818152602001838380828437600081840152601f19601f82011690508083019250505050505050815250908060018154018082558091505060019003906000526020600020906004020160009091909190915060008201518160000190805190602001906104f792919061155e565b50602082015181600101908051906020019061051492919061155e565b50604082015181600201908051906020019061053192919061155e565b50606082015181600301908051906020019061054e92919061155e565b505050858560018a8a604051610565929190611be0565b908152602001604051809103902091906105809291906115e4565b508787915091509a509a98505050505050505050565b6000803410156105db576040517f08c379a00000000000000000000000000000000000000000000000000000000081526004016105d290611d3c565b60405180910390fd5b34600360008282546105ed9190611e3e565b925050819055506001600260003373ffffffffffffffffffffffffffffffffffffffff1673ffffffffffffffffffffffffffffffffffffffff16815260200190815260200160002060006101000a81548160ff02191690831515021790555034905090565b60026020528060005260406000206000915054906101000a900460ff1681565b60008280516020810182018051848252602083016020850120818352809550505050505081815481106106a457600080fd5b9060005260206000209060040201600091509150508060000180546106c890611f1e565b80601f01602080910402602001604051908101604052809291908181526020018280546106f490611f1e565b80156107415780601f1061071657610100808354040283529160200191610741565b820191906000526020600020905b81548152906001019060200180831161072457829003601f168201915b50505050509080600101805461075690611f1e565b80601f016020809104026020016040519081016040528092919081815260200182805461078290611f1e565b80156107cf5780601f106107a4576101008083540402835291602001916107cf565b820191906000526020600020905b8154815290600101906020018083116107b257829003601f168201915b5050505050908060020180546107e490611f1e565b80601f016020809104026020016040519081016040528092919081815260200182805461081090611f1e565b801561085d5780601f106108325761010080835404028352916020019161085d565b820191906000526020600020905b81548152906001019060200180831161084057829003601f168201915b50505050509080600301805461087290611f1e565b80601f016020809104026020016040519081016040528092919081815260200182805461089e90611f1e565b80156108eb5780601f106108c0576101008083540402835291602001916108eb565b820191906000526020600020905b8154815290600101906020018083116108ce57829003601f168201915b5050505050905084565b600181805160208101820180518482526020830160208501208183528095505050505050600091509050805461092a90611f1e565b80601f016020809104026020016040519081016040528092919081815260200182805461095690611f1e565b80156109a35780601f10610978576101008083540402835291602001916109a3565b820191906000526020600020905b81548152906001019060200180831161098657829003601f168201915b505050505081565b60606000806040516109bc90611c23565b908152602001604051809103902080549050905060008167ffffffffffffffff811115610a12577f4e487b7100000000000000000000000000000000000000000000000000000000600052604160045260246000fd5b604051908082528060200260200182016040528015610a4b57816020015b610a3861166a565b815260200190600190039081610a305790505b50905060005b82811015610d6857600080604051610a6890611c23565b90815260200160405180910390208281548110610aae577f4e487b7100000000000000000000000000000000000000000000000000000000600052603260045260246000fd5b9060005260206000209060040201905080604051806080016040529081600082018054610ada90611f1e565b80601f0160208091040260200160405190810160405280929190818152602001828054610b0690611f1e565b8015610b535780601f10610b2857610100808354040283529160200191610b53565b820191906000526020600020905b815481529060010190602001808311610b3657829003601f168201915b50505050508152602001600182018054610b6c90611f1e565b80601f0160208091040260200160405190810160405280929190818152602001828054610b9890611f1e565b8015610be55780601f10610bba57610100808354040283529160200191610be5565b820191906000526020600020905b815481529060010190602001808311610bc857829003601f168201915b50505050508152602001600282018054610bfe90611f1e565b80601f0160208091040260200160405190810160405280929190818152602001828054610c2a90611f1e565b8015610c775780601f10610c4c57610100808354040283529160200191610c77565b820191906000526020600020905b815481529060010190602001808311610c5a57829003601f168201915b50505050508152602001600382018054610c9090611f1e565b80601f0160208091040260200160405190810160405280929190818152602001828054610cbc90611f1e565b8015610d095780601f10610cde57610100808354040283529160200191610d09565b820191906000526020600020905b815481529060010190602001808311610cec57829003601f168201915b505050505081525050838381518110610d4b577f4e487b7100000000000000000000000000000000000000000000000000000000600052603260045260246000fd5b60200260200101819052505080610d6190611f81565b9050610a51565b50809250505090565b6000600260008373ffffffffffffffffffffffffffffffffffffffff1673ffffffffffffffffffffffffffffffffffffffff16815260200190815260200160002060009054906101000a900460ff169050919050565b6060600080604051610dd890611c0e565b908152602001604051809103902080549050905060008167ffffffffffffffff811115610e2e577f4e487b7100000000000000000000000000000000000000000000000000000000600052604160045260246000fd5b604051908082528060200260200182016040528015610e6757816020015b610e5461166a565b815260200190600190039081610e4c5790505b50905060005b8281101561118457600080604051610e8490611c0e565b90815260200160405180910390208281548110610eca577f4e487b7100000000000000000000000000000000000000000000000000000000600052603260045260246000fd5b9060005260206000209060040201905080604051806080016040529081600082018054610ef690611f1e565b80601f0160208091040260200160405190810160405280929190818152602001828054610f2290611f1e565b8015610f6f5780601f10610f4457610100808354040283529160200191610f6f565b820191906000526020600020905b815481529060010190602001808311610f5257829003601f168201915b50505050508152602001600182018054610f8890611f1e565b80601f0160208091040260200160405190810160405280929190818152602001828054610fb490611f1e565b80156110015780601f10610fd657610100808354040283529160200191611001565b820191906000526020600020905b815481529060010190602001808311610fe457829003601f168201915b5050505050815260200160028201805461101a90611f1e565b80601f016020809104026020016040519081016040528092919081815260200182805461104690611f1e565b80156110935780601f1061106857610100808354040283529160200191611093565b820191906000526020600020905b81548152906001019060200180831161107657829003601f168201915b505050505081526020016003820180546110ac90611f1e565b80601f01602080910402602001604051908101604052809291908181526020018280546110d890611f1e565b80156111255780601f106110fa57610100808354040283529160200191611125565b820191906000526020600020905b81548152906001019060200180831161110857829003601f168201915b505050505081525050838381518110611167577f4e487b7100000000000000000000000000000000000000000000000000000000600052603260045260246000fd5b6020026020010181905250508061117d90611f81565b9050610e6d565b50809250505090565b60035481565b600081565b60606000806040516111a990611bf9565b908152602001604051809103902080549050905060008167ffffffffffffffff8111156111ff577f4e487b7100000000000000000000000000000000000000000000000000000000600052604160045260246000fd5b60405190808252806020026020018201604052801561123857816020015b61122561166a565b81526020019060019003908161121d5790505b50905060005b828110156115555760008060405161125590611bf9565b9081526020016040518091039020828154811061129b577f4e487b7100000000000000000000000000000000000000000000000000000000600052603260045260246000fd5b90600052602060002090600402019050806040518060800160405290816000820180546112c790611f1e565b80601f01602080910402602001604051908101604052809291908181526020018280546112f390611f1e565b80156113405780601f1061131557610100808354040283529160200191611340565b820191906000526020600020905b81548152906001019060200180831161132357829003601f168201915b5050505050815260200160018201805461135990611f1e565b80601f016020809104026020016040519081016040528092919081815260200182805461138590611f1e565b80156113d25780601f106113a7576101008083540402835291602001916113d2565b820191906000526020600020905b8154815290600101906020018083116113b557829003601f168201915b505050505081526020016002820180546113eb90611f1e565b80601f016020809104026020016040519081016040528092919081815260200182805461141790611f1e565b80156114645780601f1061143957610100808354040283529160200191611464565b820191906000526020600020905b81548152906001019060200180831161144757829003601f168201915b5050505050815260200160038201805461147d90611f1e565b80601f01602080910402602001604051908101604052809291908181526020018280546114a990611f1e565b80156114f65780601f106114cb576101008083540402835291602001916114f6565b820191906000526020600020905b8154815290600101906020018083116114d957829003601f168201915b505050505081525050838381518110611538577f4e487b7100000000000000000000000000000000000000000000000000000000600052603260045260246000fd5b6020026020010181905250508061154e90611f81565b905061123e565b50809250505090565b82805461156a90611f1e565b90600052602060002090601f01602090048101928261158c57600085556115d3565b82601f106115a557805160ff19168380011785556115d3565b828001600101855582156115d3579182015b828111156115d25782518255916020019190600101906115b7565b5b5090506115e09190611692565b5090565b8280546115f090611f1e565b90600052602060002090601f0160209004810192826116125760008555611659565b82601f1061162b57803560ff1916838001178555611659565b82800160010185558215611659579182015b8281111561165857823582559160200191906001019061163d565b5b5090506116669190611692565b5090565b6040518060800160405280606081526020016060815260200160608152602001606081525090565b5b808211156116ab576000816000905550600101611693565b5090565b60006116c26116bd84611d9c565b611d77565b9050828152602081018484840111156116da57600080fd5b6116e5848285611edc565b509392505050565b6000813590506116fc81612135565b92915050565b60008083601f84011261171457600080fd5b8235905067ffffffffffffffff81111561172d57600080fd5b60208301915083600182028301111561174557600080fd5b9250929050565b600082601f83011261175d57600080fd5b813561176d8482602086016116af565b91505092915050565b6000813590506117858161214c565b92915050565b60006020828403121561179d57600080fd5b60006117ab848285016116ed565b91505092915050565b60008060008060008060008060008060a08b8d0312156117d357600080fd5b60008b013567ffffffffffffffff8111156117ed57600080fd5b6117f98d828e01611702565b9a509a505060208b013567ffffffffffffffff81111561181857600080fd5b6118248d828e01611702565b985098505060408b013567ffffffffffffffff81111561184357600080fd5b61184f8d828e01611702565b965096505060608b013567ffffffffffffffff81111561186e57600080fd5b61187a8d828e01611702565b945094505060808b013567ffffffffffffffff81111561189957600080fd5b6118a58d828e01611702565b92509250509295989b9194979a5092959850565b6000602082840312156118cb57600080fd5b600082013567ffffffffffffffff8111156118e557600080fd5b6118f18482850161174c565b91505092915050565b6000806040838503121561190d57600080fd5b600083013567ffffffffffffffff81111561192757600080fd5b6119338582860161174c565b925050602061194485828601611776565b9150509250929050565b600061195a8383611b59565b905092915050565b600061196d82611ddd565b6119778185611e00565b93508360208202850161198985611dcd565b8060005b858110156119c557848403895281516119a6858261194e565b94506119b183611df3565b925060208a0199505060018101905061198d565b50829750879550505050505092915050565b6119e081611ea6565b82525050565b60006119f28385611e22565b93506119ff838584611edc565b611a0883612057565b840190509392505050565b6000611a1f8385611e33565b9350611a2c838584611edc565b82840190509392505050565b6000611a4382611de8565b611a4d8185611e11565b9350611a5d818560208601611eeb565b611a6681612057565b840191505092915050565b6000611a7c82611de8565b611a868185611e22565b9350611a96818560208601611eeb565b611a9f81612057565b840191505092915050565b6000611ab7600f83611e22565b9150611ac282612068565b602082019050919050565b6000611ada600583611e33565b9150611ae582612091565b600582019050919050565b6000611afd601383611e22565b9150611b08826120ba565b602082019050919050565b6000611b20600383611e33565b9150611b2b826120e3565b600382019050919050565b6000611b43600683611e33565b9150611b4e8261210c565b600682019050919050565b60006080830160008301518482036000860152611b768282611a38565b91505060208301518482036020860152611b908282611a38565b91505060408301518482036040860152611baa8282611a38565b91505060608301518482036060860152611bc48282611a38565b9150508091505092915050565b611bda81611ed2565b82525050565b6000611bed828486611a13565b91508190509392505050565b6000611c0482611acd565b9150819050919050565b6000611c1982611b13565b9150819050919050565b6000611c2e82611b36565b9150819050919050565b60006020820190508181036000830152611c528184611962565b905092915050565b6000602082019050611c6f60008301846119d7565b92915050565b60006020820190508181036000830152611c908184866119e6565b90509392505050565b60006020820190508181036000830152611cb38184611a71565b905092915050565b60006080820190508181036000830152611cd58187611a71565b90508181036020830152611ce98186611a71565b90508181036040830152611cfd8185611a71565b90508181036060830152611d118184611a71565b905095945050505050565b60006020820190508181036000830152611d3581611aaa565b9050919050565b60006020820190508181036000830152611d5581611af0565b9050919050565b6000602082019050611d716000830184611bd1565b92915050565b6000611d81611d92565b9050611d8d8282611f50565b919050565b6000604051905090565b600067ffffffffffffffff821115611db757611db6612028565b5b611dc082612057565b9050602081019050919050565b6000819050602082019050919050565b600081519050919050565b600081519050919050565b6000602082019050919050565b600082825260208201905092915050565b600082825260208201905092915050565b600082825260208201905092915050565b600081905092915050565b6000611e4982611ed2565b9150611e5483611ed2565b9250827fffffffffffffffffffffffffffffffffffffffffffffffffffffffffffffffff03821115611e8957611e88611fca565b5b828201905092915050565b6000611e9f82611eb2565b9050919050565b60008115159050919050565b600073ffffffffffffffffffffffffffffffffffffffff82169050919050565b6000819050919050565b82818337600083830152505050565b60005b83811015611f09578082015181840152602081019050611eee565b83811115611f18576000848401525b50505050565b60006002820490506001821680611f3657607f821691505b60208210811415611f4a57611f49611ff9565b5b50919050565b611f5982612057565b810181811067ffffffffffffffff82111715611f7857611f77612028565b5b80604052505050565b6000611f8c82611ed2565b91507fffffffffffffffffffffffffffffffffffffffffffffffffffffffffffffffff821415611fbf57611fbe611fca565b5b600182019050919050565b7f4e487b7100000000000000000000000000000000000000000000000000000000600052601160045260246000fd5b7f4e487b7100000000000000000000000000000000000000000000000000000000600052602260045260246000fd5b7f4e487b7100000000000000000000000000000000000000000000000000000000600052604160045260246000fd5b6000601f19601f8301169050919050565b7f4e6f74206120646576656c6f7065720000000000000000000000000000000000600082015250565b7f67616d6573000000000000000000000000000000000000000000000000000000600082015250565b7f416d6f756e7420696e73756666696369656e7400000000000000000000000000600082015250565b7f6170700000000000000000000000000000000000000000000000000000000000600082015250565b7f636f6d6963730000000000000000000000000000000000000000000000000000600082015250565b61213e81611e94565b811461214957600080fd5b50565b61215581611ed2565b811461216057600080fd5b5056fea264697066735822122077f3d49958de182c36abbb805217f0c0ff82f4fac5f1547a1b9667673fb5b77164736f6c63430008020033",
  "immutableReferences": {},
  "source": "// SPDX-License-Identifier: MIT\npragma solidity 0.8.2;\n\ncontract PlayStore {\n    struct App {\n        string name;\n        string category;\n        string fileCid;\n        string iconCid;\n    }\n\n    mapping(string => App[]) public appTypeToApps;\n    mapping(string => string) public appToCid;\n    mapping(address => bool) public developer;\n\n    uint256 public balance;\n    uint256 public constant Fee = 0;\n\n    function isDeveloper(address _address) external view returns (bool) {\n        return developer[_address];\n    }\n\n    function pay() external payable returns (uint256) {\n        require(msg.value >= Fee, \"Amount insufficient\");\n        balance += msg.value;\n        developer[msg.sender] = true;\n        return msg.value;\n    }\n\n    function getAllApps() public view returns (App[] memory) {\n        uint256 len = appTypeToApps[\"app\"].length;\n        App[] memory apps = new App[](len);\n\n        for (uint256 i = 0; i < len; ++i) {\n            App storage appStorage = appTypeToApps[\"app\"][i];\n            apps[i] = appStorage;\n        }\n        return apps;\n    }\n\n    function getAllGames() public view returns (App[] memory) {\n        uint256 len = appTypeToApps[\"games\"].length;\n        App[] memory apps = new App[](len);\n\n        for (uint256 i = 0; i < len; ++i) {\n            App storage appStorage = appTypeToApps[\"games\"][i];\n            apps[i] = appStorage;\n        }\n        return apps;\n    }\n\n    function getAllComics() public view returns (App[] memory) {\n        uint256 len = appTypeToApps[\"comics\"].length;\n        App[] memory apps = new App[](len);\n\n        for (uint256 i = 0; i < len; ++i) {\n            App storage appStorage = appTypeToApps[\"comics\"][i];\n            apps[i] = appStorage;\n        }\n        return apps;\n    }\n\n    function create(\n        string calldata _category,\n        string calldata _appType,\n        string calldata _appName,\n        string calldata _fileCid,\n        string calldata _iconCid\n    ) external returns (string calldata) {\n        require(developer[msg.sender] == true, \"Not a developer\");\n        appTypeToApps[_appType].push(\n            App({\n                name: _appName,\n                category: _category,\n                fileCid: _fileCid,\n                iconCid: _iconCid\n            })\n        );\n        appToCid[_appName] = _fileCid;\n        return _appName;\n    }\n}\n",
  "sourcePath": "/Users/shashank-mohash/Desktop/Personal/ethindia/temp9/ethIndia2022/contracts/contracts/PlayStore.sol",
  "compiler": {
    "name": "solc",
    "version": "0.8.2+commit.661d1103.Emscripten.clang"
  },
  "schemaVersion": "3.4.7",
  "updatedAt": "2022-12-03T19:06:22.202Z",
  "devdoc": {
    "kind": "dev",
    "methods": {},
    "version": 1
  },
  "userdoc": {
    "kind": "user",
    "methods": {},
    "version": 1
  }
}